{
  "contractName": "Auction",
  "abi": [
    {
      "constant": true,
      "inputs": [],
      "name": "endBlock",
      "outputs": [
        {
          "name": "",
          "type": "uint256"
        }
      ],
      "payable": false,
      "stateMutability": "view",
      "type": "function"
    },
    {
      "constant": true,
      "inputs": [],
      "name": "canceled",
      "outputs": [
        {
          "name": "",
          "type": "bool"
        }
      ],
      "payable": false,
      "stateMutability": "view",
      "type": "function"
    },
    {
      "constant": true,
      "inputs": [],
      "name": "startBlock",
      "outputs": [
        {
          "name": "",
          "type": "uint256"
        }
      ],
      "payable": false,
      "stateMutability": "view",
      "type": "function"
    },
    {
      "constant": true,
      "inputs": [],
      "name": "title",
      "outputs": [
        {
          "name": "",
          "type": "string"
        }
      ],
      "payable": false,
      "stateMutability": "view",
      "type": "function"
    },
    {
      "constant": true,
      "inputs": [],
      "name": "description",
      "outputs": [
        {
          "name": "",
          "type": "string"
        }
      ],
      "payable": false,
      "stateMutability": "view",
      "type": "function"
    },
    {
      "constant": true,
      "inputs": [],
      "name": "owner",
      "outputs": [
        {
          "name": "",
          "type": "address"
        }
      ],
      "payable": false,
      "stateMutability": "view",
      "type": "function"
    },
    {
      "constant": true,
      "inputs": [],
      "name": "highestBidder",
      "outputs": [
        {
          "name": "",
          "type": "address"
        }
      ],
      "payable": false,
      "stateMutability": "view",
      "type": "function"
    },
    {
      "constant": true,
      "inputs": [],
      "name": "bidIncrement",
      "outputs": [
        {
          "name": "",
          "type": "uint256"
        }
      ],
      "payable": false,
      "stateMutability": "view",
      "type": "function"
    },
    {
      "constant": true,
      "inputs": [],
      "name": "ipfsHash",
      "outputs": [
        {
          "name": "",
          "type": "string"
        }
      ],
      "payable": false,
      "stateMutability": "view",
      "type": "function"
    },
    {
      "constant": true,
      "inputs": [
        {
          "name": "",
          "type": "address"
        }
      ],
      "name": "fundsByBidder",
      "outputs": [
        {
          "name": "",
          "type": "uint256"
        }
      ],
      "payable": false,
      "stateMutability": "view",
      "type": "function"
    },
    {
      "constant": true,
      "inputs": [],
      "name": "tags",
      "outputs": [
        {
          "name": "",
          "type": "string"
        }
      ],
      "payable": false,
      "stateMutability": "view",
      "type": "function"
    },
    {
      "constant": true,
      "inputs": [],
      "name": "highestBindingBid",
      "outputs": [
        {
          "name": "",
          "type": "uint256"
        }
      ],
      "payable": false,
      "stateMutability": "view",
      "type": "function"
    },
    {
      "inputs": [
        {
          "name": "_owner",
          "type": "address"
        },
        {
          "name": "_bidIncrement",
          "type": "uint256"
        },
        {
          "name": "_startBlock",
          "type": "uint256"
        },
        {
          "name": "_endBlock",
          "type": "uint256"
        },
        {
          "name": "_ipfsHash",
          "type": "string"
        },
        {
          "name": "_title",
          "type": "string"
        },
        {
          "name": "_description",
          "type": "string"
        },
        {
          "name": "_tags",
          "type": "string"
        }
      ],
      "payable": false,
      "stateMutability": "nonpayable",
      "type": "constructor"
    },
    {
      "payable": true,
      "stateMutability": "payable",
      "type": "fallback"
    },
    {
      "anonymous": false,
      "inputs": [
        {
          "indexed": false,
          "name": "bidder",
          "type": "address"
        },
        {
          "indexed": false,
          "name": "bid",
          "type": "uint256"
        },
        {
          "indexed": false,
          "name": "highestBidder",
          "type": "address"
        },
        {
          "indexed": false,
          "name": "highestBid",
          "type": "uint256"
        },
        {
          "indexed": false,
          "name": "highestBindingBid",
          "type": "uint256"
        }
      ],
      "name": "LogBid",
      "type": "event"
    },
    {
      "anonymous": false,
      "inputs": [
        {
          "indexed": false,
          "name": "withdrawer",
          "type": "address"
        },
        {
          "indexed": false,
          "name": "withdrawalAccount",
          "type": "address"
        },
        {
          "indexed": false,
          "name": "amount",
          "type": "uint256"
        }
      ],
      "name": "LogWithdrawal",
      "type": "event"
    },
    {
      "anonymous": false,
      "inputs": [],
      "name": "LogCanceled",
      "type": "event"
    },
    {
      "constant": true,
      "inputs": [],
      "name": "getHighestBid",
      "outputs": [
        {
          "name": "",
          "type": "uint256"
        }
      ],
      "payable": false,
      "stateMutability": "view",
      "type": "function"
    },
    {
      "constant": false,
      "inputs": [
        {
          "name": "_value",
          "type": "uint256"
        }
      ],
      "name": "placeBid",
      "outputs": [
        {
          "name": "success",
          "type": "bool"
        }
      ],
      "payable": false,
      "stateMutability": "nonpayable",
      "type": "function"
    },
    {
      "constant": false,
      "inputs": [],
      "name": "cancelAuction",
      "outputs": [
        {
          "name": "success",
          "type": "bool"
        }
      ],
      "payable": false,
      "stateMutability": "nonpayable",
      "type": "function"
    },
    {
      "constant": false,
      "inputs": [],
      "name": "withdraw",
      "outputs": [
        {
          "name": "success",
          "type": "bool"
        }
      ],
      "payable": false,
      "stateMutability": "nonpayable",
      "type": "function"
    }
  ],
  "bytecode": "0x60806040523480156200001157600080fd5b50604051620015b1380380620015b1833981018060405281019080805190602001909291908051906020019092919080519060200190929190805190602001909291908051820192919060200180518201929190602001805182019291906020018051820192919050505084861015156200011a576040517f08c379a00000000000000000000000000000000000000000000000000000000081526004018080602001828103825260248152602001807f737461727420626c6f636b2069732067726561746572207468616e20656e646281526020017f6c6f636b0000000000000000000000000000000000000000000000000000000081525060400191505060405180910390fd5b4386101515620001b8576040517f08c379a00000000000000000000000000000000000000000000000000000000081526004018080602001828103825260228152602001807f656e6420626c6f636b206973206c6f776572207468616e207361747274626c6f81526020017f636b00000000000000000000000000000000000000000000000000000000000081525060400191505060405180910390fd5b60008873ffffffffffffffffffffffffffffffffffffffff161415151562000248576040517f08c379a00000000000000000000000000000000000000000000000000000000081526004018080602001828103825260128152602001807f4f776e6572206973206e6f7420656d707479000000000000000000000000000081525060200191505060405180910390fd5b876000806101000a81548173ffffffffffffffffffffffffffffffffffffffff021916908373ffffffffffffffffffffffffffffffffffffffff1602179055508660018190555085600281905550846003819055508360049080519060200190620002b59291906200030f565b508260059080519060200190620002ce9291906200030f565b508160069080519060200190620002e79291906200030f565b508060079080519060200190620003009291906200030f565b505050505050505050620003be565b828054600181600116156101000203166002900490600052602060002090601f016020900481019282601f106200035257805160ff191683800117855562000383565b8280016001018555821562000383579182015b828111156200038257825182559160200191906001019062000365565b5b50905062000392919062000396565b5090565b620003bb91905b80821115620003b75760008160009055506001016200039d565b5090565b90565b6111e380620003ce6000396000f3006080604052600436106100e6576000357c0100000000000000000000000000000000000000000000000000000000900463ffffffff168063083c6323146100f25780633ccfd60b1461011d5780633f9942ff1461014c57806348cd4cb11461017b5780634979440a146101a65780634a79d50c146101d15780637284e416146102615780638da5cb5b146102f15780638fa8b7901461034857806391f90157146103775780639979ef45146103ce578063b3cc167a14610413578063c623674f1461043e578063ce10cf80146104ce578063de6b7e0914610525578063f5b56c56146105b5575b6100ef346105e0565b50005b3480156100fe57600080fd5b5061010761093a565b6040518082815260200191505060405180910390f35b34801561012957600080fd5b50610132610940565b604051808215151515815260200191505060405180910390f35b34801561015857600080fd5b50610161610d5e565b604051808215151515815260200191505060405180910390f35b34801561018757600080fd5b50610190610d71565b6040518082815260200191505060405180910390f35b3480156101b257600080fd5b506101bb610d77565b6040518082815260200191505060405180910390f35b3480156101dd57600080fd5b506101e6610de0565b6040518080602001828103825283818151815260200191508051906020019080838360005b8381101561022657808201518184015260208101905061020b565b50505050905090810190601f1680156102535780820380516001836020036101000a031916815260200191505b509250505060405180910390f35b34801561026d57600080fd5b50610276610e7e565b6040518080602001828103825283818151815260200191508051906020019080838360005b838110156102b657808201518184015260208101905061029b565b50505050905090810190601f1680156102e35780820380516001836020036101000a031916815260200191505b509250505060405180910390f35b3480156102fd57600080fd5b50610306610f1c565b604051808273ffffffffffffffffffffffffffffffffffffffff1673ffffffffffffffffffffffffffffffffffffffff16815260200191505060405180910390f35b34801561035457600080fd5b5061035d610f41565b604051808215151515815260200191505060405180910390f35b34801561038357600080fd5b5061038c611015565b604051808273ffffffffffffffffffffffffffffffffffffffff1673ffffffffffffffffffffffffffffffffffffffff16815260200191505060405180910390f35b3480156103da57600080fd5b506103f9600480360381019080803590602001909291905050506105e0565b604051808215151515815260200191505060405180910390f35b34801561041f57600080fd5b5061042861103b565b6040518082815260200191505060405180910390f35b34801561044a57600080fd5b50610453611041565b6040518080602001828103825283818151815260200191508051906020019080838360005b83811015610493578082015181840152602081019050610478565b50505050905090810190601f1680156104c05780820380516001836020036101000a031916815260200191505b509250505060405180910390f35b3480156104da57600080fd5b5061050f600480360381019080803573ffffffffffffffffffffffffffffffffffffffff1690602001909291905050506110df565b6040518082815260200191505060405180910390f35b34801561053157600080fd5b5061053a6110f7565b6040518080602001828103825283818151815260200191508051906020019080838360005b8381101561057a57808201518184015260208101905061055f565b50505050905090810190601f1680156105a75780820380516001836020036101000a031916815260200191505b509250505060405180910390f35b3480156105c157600080fd5b506105ca611195565b6040518082815260200191505060405180910390f35b6000806000600254431115156105f557600080fd5b6003544310151561060557600080fd5b600860009054906101000a900460ff1615151561062157600080fd5b6000809054906101000a900473ffffffffffffffffffffffffffffffffffffffff1673ffffffffffffffffffffffffffffffffffffffff163373ffffffffffffffffffffffffffffffffffffffff161415151561067d57600080fd5b6000841415151561068d57600080fd5b83600b60003373ffffffffffffffffffffffffffffffffffffffff1673ffffffffffffffffffffffffffffffffffffffff16815260200190815260200160002054019150600954821115156106e157600080fd5b600b6000600a60009054906101000a900473ffffffffffffffffffffffffffffffffffffffff1673ffffffffffffffffffffffffffffffffffffffff1673ffffffffffffffffffffffffffffffffffffffff16815260200190815260200160002054905081600b60003373ffffffffffffffffffffffffffffffffffffffff1673ffffffffffffffffffffffffffffffffffffffff1681526020019081526020016000208190555080821115156107ab576107a060015483018261119b565b60098190555061085c565b600a60009054906101000a900473ffffffffffffffffffffffffffffffffffffffff1673ffffffffffffffffffffffffffffffffffffffff163373ffffffffffffffffffffffffffffffffffffffff161415156108585733600a60006101000a81548173ffffffffffffffffffffffffffffffffffffffff021916908373ffffffffffffffffffffffffffffffffffffffff16021790555061085182600154830161119b565b6009819055505b8190505b7ff152f4ff5e488c55370a2d53925a55055228ebd8ec95bd0251bbb299e48786b03383600a60009054906101000a900473ffffffffffffffffffffffffffffffffffffffff1684600954604051808673ffffffffffffffffffffffffffffffffffffffff1673ffffffffffffffffffffffffffffffffffffffff1681526020018581526020018473ffffffffffffffffffffffffffffffffffffffff1673ffffffffffffffffffffffffffffffffffffffff1681526020018381526020018281526020019550505050505060405180910390a1600192505050919050565b60035481565b60008060006003544311806109615750600860009054906101000a900460ff165b151561096c57600080fd5b600860009054906101000a900460ff16156109cb57339150600b60008373ffffffffffffffffffffffffffffffffffffffff1673ffffffffffffffffffffffffffffffffffffffff168152602001908152602001600020549050610c19565b6000809054906101000a900473ffffffffffffffffffffffffffffffffffffffff1673ffffffffffffffffffffffffffffffffffffffff163373ffffffffffffffffffffffffffffffffffffffff161415610a6a57600a60009054906101000a900473ffffffffffffffffffffffffffffffffffffffff16915060095490506001600c60006101000a81548160ff021916908315150217905550610c18565b600a60009054906101000a900473ffffffffffffffffffffffffffffffffffffffff1673ffffffffffffffffffffffffffffffffffffffff163373ffffffffffffffffffffffffffffffffffffffff161415610bd157600a60009054906101000a900473ffffffffffffffffffffffffffffffffffffffff169150600c60009054906101000a900460ff1615610b6357600b6000600a60009054906101000a900473ffffffffffffffffffffffffffffffffffffffff1673ffffffffffffffffffffffffffffffffffffffff1673ffffffffffffffffffffffffffffffffffffffff168152602001908152602001600020549050610bcc565b600954600b6000600a60009054906101000a900473ffffffffffffffffffffffffffffffffffffffff1673ffffffffffffffffffffffffffffffffffffffff1673ffffffffffffffffffffffffffffffffffffffff168152602001908152602001600020540390505b610c17565b339150600b60008373ffffffffffffffffffffffffffffffffffffffff1673ffffffffffffffffffffffffffffffffffffffff1681526020019081526020016000205490505b5b5b60008114151515610c2957600080fd5b80600b60008473ffffffffffffffffffffffffffffffffffffffff1673ffffffffffffffffffffffffffffffffffffffff168152602001908152602001600020600082825403925050819055503373ffffffffffffffffffffffffffffffffffffffff166108fc829081150290604051600060405180830381858888f193505050501515610cb657600080fd5b7f0ec497a8ae5b1ba29c60470ef651def995fac3deebbdcc56c47a4e5f51a4c2bd338383604051808473ffffffffffffffffffffffffffffffffffffffff1673ffffffffffffffffffffffffffffffffffffffff1681526020018373ffffffffffffffffffffffffffffffffffffffff1673ffffffffffffffffffffffffffffffffffffffff168152602001828152602001935050505060405180910390a160019250505090565b600860009054906101000a900460ff1681565b60025481565b6000600b6000600a60009054906101000a900473ffffffffffffffffffffffffffffffffffffffff1673ffffffffffffffffffffffffffffffffffffffff1673ffffffffffffffffffffffffffffffffffffffff16815260200190815260200160002054905090565b60058054600181600116156101000203166002900480601f016020809104026020016040519081016040528092919081815260200182805460018160011615610100020316600290048015610e765780601f10610e4b57610100808354040283529160200191610e76565b820191906000526020600020905b815481529060010190602001808311610e5957829003601f168201915b505050505081565b60068054600181600116156101000203166002900480601f016020809104026020016040519081016040528092919081815260200182805460018160011615610100020316600290048015610f145780601f10610ee957610100808354040283529160200191610f14565b820191906000526020600020905b815481529060010190602001808311610ef757829003601f168201915b505050505081565b6000809054906101000a900473ffffffffffffffffffffffffffffffffffffffff1681565b60008060009054906101000a900473ffffffffffffffffffffffffffffffffffffffff1673ffffffffffffffffffffffffffffffffffffffff163373ffffffffffffffffffffffffffffffffffffffff16141515610f9b57fe5b60035443101515610fab57600080fd5b600860009054906101000a900460ff16151515610fc757600080fd5b6001600860006101000a81548160ff0219169083151502179055507f462b6ca7f632601af1295aeb320851f50e8e630a309173f23535845ea4bfb3b960405160405180910390a16001905090565b600a60009054906101000a900473ffffffffffffffffffffffffffffffffffffffff1681565b60015481565b60048054600181600116156101000203166002900480601f0160208091040260200160405190810160405280929190818152602001828054600181600116156101000203166002900480156110d75780601f106110ac576101008083540402835291602001916110d7565b820191906000526020600020905b8154815290600101906020018083116110ba57829003601f168201915b505050505081565b600b6020528060005260406000206000915090505481565b60078054600181600116156101000203166002900480601f01602080910402602001604051908101604052809291908181526020018280546001816001161561010002031660029004801561118d5780601f106111625761010080835404028352916020019161118d565b820191906000526020600020905b81548152906001019060200180831161117057829003601f168201915b505050505081565b60095481565b6000818310156111ad578290506111b1565b8190505b929150505600a165627a7a723058208558cb67851d6260f35132bfcbe2d9693193cfa2c49cd6fd9bb9416876f4078a0029",
  "source": "pragma solidity ^0.4.24;\r\ncontract Auction {\r\n    // static\r\n    address public owner;\r\n    uint public bidIncrement;\r\n    uint public startBlock;\r\n    uint public endBlock;\r\n    string public ipfsHash;\r\n    string public title;\r\n    string public description;\r\n    string public tags;\r\n\r\n    // state\r\n    bool public canceled;\r\n    uint public highestBindingBid;\r\n    address public highestBidder;\r\n    mapping(address => uint256) public fundsByBidder;\r\n    bool ownerHasWithdrawn;\r\n\r\n    event LogBid(address bidder, uint bid, address highestBidder, uint highestBid, uint highestBindingBid);\r\n    event LogWithdrawal(address withdrawer, address withdrawalAccount, uint amount);\r\n    event LogCanceled();\r\n\r\n    constructor (address _owner, uint _bidIncrement, uint _startBlock, uint _endBlock, string _ipfsHash,\r\n     string _title, string _description, string _tags)  public  {\r\n        require (_startBlock < _endBlock,\"start block is greater than endblock\");\r\n        require (_startBlock < block.number,\"end block is lower than satrtblock\");\r\n        require (_owner != 0,\"Owner is not empty\");\r\n\r\n        owner = _owner;\r\n        bidIncrement = _bidIncrement;\r\n        startBlock = _startBlock;\r\n        endBlock = _endBlock;\r\n        ipfsHash = _ipfsHash;\r\n        title = _title;\r\n        description = _description;\r\n        tags = _tags;\r\n    }\r\n\r\n    function getHighestBid ()\r\n       public\r\n        constant\r\n        returns (uint)\r\n    {\r\n        return fundsByBidder[highestBidder];\r\n    }\r\n    \r\n    function () payable public {\r\n        placeBid(msg.value);\r\n    }\r\n\r\n    function placeBid(uint _value)\r\n        public\r\n        onlyAfterStart\r\n        onlyBeforeEnd\r\n        onlyNotCanceled\r\n        onlyNotOwner\r\n        returns (bool success)\r\n    {\r\n        // reject payments of 0 ETH\r\n        require (_value != 0) ;\r\n\r\n        // calculate the user's total bid based on the current amount they've sent to the contract\r\n        // plus whatever has been sent with this transaction\r\n        uint newBid = fundsByBidder[msg.sender] + _value;\r\n\r\n        // if the user isn't even willing to overbid the highest binding bid, there's nothing for us\r\n        // to do except revert the transaction.\r\n        require (newBid > highestBindingBid) ;\r\n\r\n        // grab the previous highest bid (before updating fundsByBidder, in case msg.sender is the\r\n        // highestBidder and is just increasing their maximum bid).\r\n        uint highestBid = fundsByBidder[highestBidder];\r\n\r\n        fundsByBidder[msg.sender] = newBid;\r\n\r\n        if (newBid <= highestBid) {\r\n            // if the user has overbid the highestBindingBid but not the highestBid, we simply\r\n            // increase the highestBindingBid and leave highestBidder alone.\r\n\r\n            // note that this case is impossible if msg.sender == highestBidder because you can never\r\n            // bid less ETH than you've already bid.\r\n\r\n            highestBindingBid = min(newBid + bidIncrement, highestBid);\r\n        } else {\r\n            // if msg.sender is already the highest bidder, they must simply be wanting to raise\r\n            // their maximum bid, in which case we shouldn't increase the highestBindingBid.\r\n\r\n            // if the user is NOT highestBidder, and has overbid highestBid completely, we set them\r\n            // as the new highestBidder and recalculate highestBindingBid.\r\n\r\n            if (msg.sender != highestBidder) {\r\n                highestBidder = msg.sender;\r\n                highestBindingBid = min(newBid, highestBid + bidIncrement);\r\n            }\r\n            highestBid = newBid;\r\n        }\r\n\r\n        emit LogBid(msg.sender, newBid, highestBidder, highestBid, highestBindingBid);\r\n        return true;\r\n    }\r\n\r\n    function min(uint a, uint b)\r\n        pure\r\n        private\r\n        returns (uint)\r\n    {\r\n        if (a < b) return a;\r\n        return b;\r\n    }\r\n\r\n    function cancelAuction()\r\n        public\r\n        onlyOwner\r\n        onlyBeforeEnd\r\n        onlyNotCanceled\r\n        returns (bool success)\r\n    {\r\n        canceled = true;\r\n        emit LogCanceled();\r\n        return true;\r\n    }\r\n\r\n    function withdraw()\r\n        public\r\n        onlyEndedOrCanceled\r\n        returns (bool success)\r\n    {\r\n        address withdrawalAccount;\r\n        uint withdrawalAmount;\r\n\r\n        if (canceled) {\r\n            // if the auction was canceled, everyone should simply be allowed to withdraw their funds\r\n            withdrawalAccount = msg.sender;\r\n            withdrawalAmount = fundsByBidder[withdrawalAccount];\r\n\r\n        } else {\r\n            // the auction finished without being canceled\r\n\r\n            if (msg.sender == owner) {\r\n                // the auction's owner should be allowed to withdraw the highestBindingBid\r\n                withdrawalAccount = highestBidder;\r\n                withdrawalAmount = highestBindingBid;\r\n                ownerHasWithdrawn = true;\r\n\r\n            } else if (msg.sender == highestBidder) {\r\n                // the highest bidder should only be allowed to withdraw the difference between their\r\n                // highest bid and the highestBindingBid\r\n                withdrawalAccount = highestBidder;\r\n                if (ownerHasWithdrawn) {\r\n                    withdrawalAmount = fundsByBidder[highestBidder];\r\n                } else {\r\n                    withdrawalAmount = fundsByBidder[highestBidder] - highestBindingBid;\r\n                }\r\n\r\n            } else {\r\n                // anyone who participated but did not win the auction should be allowed to withdraw\r\n                // the full amount of their funds\r\n                withdrawalAccount = msg.sender;\r\n                withdrawalAmount = fundsByBidder[withdrawalAccount];\r\n            }\r\n        }\r\n\r\n        require (withdrawalAmount != 0) ;\r\n\r\n        fundsByBidder[withdrawalAccount] -= withdrawalAmount;\r\n\r\n        // send the funds\r\n        require (msg.sender.send(withdrawalAmount)) ;\r\n\r\n       emit LogWithdrawal(msg.sender, withdrawalAccount, withdrawalAmount);\r\n\r\n        return true;\r\n    }\r\n\r\n    modifier onlyOwner {\r\n        assert (msg.sender == owner) ;\r\n        _;\r\n    }\r\n\r\n    modifier onlyNotOwner {\r\n        require (msg.sender != owner) ;\r\n        _;\r\n    }\r\n\r\n    modifier onlyAfterStart {\r\n        require (block.number > startBlock) ;\r\n        _;\r\n    }\r\n\r\n    modifier onlyBeforeEnd {\r\n        require (block.number < endBlock) ;\r\n        _;\r\n    }\r\n\r\n    modifier onlyNotCanceled {\r\n        require (!canceled) ;\r\n        _;\r\n    }\r\n\r\n    modifier onlyEndedOrCanceled {\r\n        require (block.number > endBlock || canceled) ;\r\n        _;\r\n    }\r\n}",
  "sourcePath": "d:\\projects\\truffleapp\\auctiontest\\solidity-auction\\contracts\\Auction.sol",
  "compiler": {
    "name": "solc",
    "version": "0.4.24+commit.e67f0147.Emscripten.clang"
  },
  "schemaVersion": "2.0.1",
  "updatedAt": "2019-01-05T09:44:56.010Z"
}